:100000000C942A000C9434000C9434000C943400AA
:100010000C9434000C9434000C9434000C94340090
:100020000C9434000C9434000C9434000C94340080
:100030000C9434000C9434000C9434000C94340070
:100040000C9434000C9434000C9434000C94340060
:100050000C94340011241FBECFE5D4E0DEBFCDBF29
:100060000E9440000C9451000C94000082E080B982
:1000700011B882B984E086BF089584E986BF0895E7
:100080000E94360081B3816081BB82B38E7F82BBC8
:1000900083B18436E9F782B3816082BB0E943D0060
:0600A000F7CFF894FFCF3A
:00000001FF
