S0160000534C4156455F534F4654574152452E73726563C9
S11300000C942A000C9434000C9434000C943400A6
S11300100C9434000C9434000C9434000C9434008C
S11300200C9434000C9434000C9434000C9434007C
S11300300C9434000C9434000C9434000C9434006C
S11300400C9434000C9434000C9434000C9434005C
S11300500C94340011241FBECFE5D4E0DEBFCDBF25
S11300600E9445000C945C000C94000082E080B96E
S113007011B882B984E086BF089583B984E886BF45
S113008006B607FEFDCF83B108950E94360081B302
S1130090816081BB82B38E7F82BB84E60E943D0077
S11300A08823D9F392B381E0892782BB84E60E9436
S10F00B03D008111FBCFF1CFF894FFCF8D
S9030000FC
