S0100000736F6674776172652E73726563A9
S11300000C942A000C9434000C9434000C943400A6
S11300100C9434000C9434000C9434000C9434008C
S11300200C9434000C9434000C9434000C9434007C
S11300300C9434000C9434000C9434000C9434006C
S11300400C9434000C9434000C9434000C9434005C
S11300500C94340011241FBECFE5D4E0DEBFCDBF25
S11300600E944D000C945E000C94000082E080B964
S113007011B882B984E086BF089584EA86BF06B6C3
S113008007FEFDCF089584E986BF089583B984E807
S113009086BF06B607FEFDCF08950E94360087B3DB
S11300A08E7F87BBB09BFECF0E943D0084E60E94FA
S11300B046000E944300B099FECFF4CFF894FFCFDE
S9030000FC
